{
  "contractName": "Election",
  "abi": [
    {
      "inputs": [
        {
          "internalType": "string[]",
          "name": "proposalNames",
          "type": "string[]"
        }
      ],
      "payable": false,
      "stateMutability": "nonpayable",
      "type": "constructor"
    },
    {
      "anonymous": false,
      "inputs": [
        {
          "indexed": true,
          "internalType": "uint256",
          "name": "_proposal",
          "type": "uint256"
        }
      ],
      "name": "votedEvent",
      "type": "event"
    },
    {
      "constant": true,
      "inputs": [],
      "name": "admin",
      "outputs": [
        {
          "internalType": "address",
          "name": "",
          "type": "address"
        }
      ],
      "payable": false,
      "stateMutability": "view",
      "type": "function"
    },
    {
      "constant": true,
      "inputs": [
        {
          "internalType": "uint256",
          "name": "",
          "type": "uint256"
        }
      ],
      "name": "proposals",
      "outputs": [
        {
          "internalType": "string",
          "name": "name",
          "type": "string"
        },
        {
          "internalType": "uint256",
          "name": "voteCount",
          "type": "uint256"
        }
      ],
      "payable": false,
      "stateMutability": "view",
      "type": "function"
    },
    {
      "constant": true,
      "inputs": [],
      "name": "proposals_count",
      "outputs": [
        {
          "internalType": "uint256",
          "name": "",
          "type": "uint256"
        }
      ],
      "payable": false,
      "stateMutability": "view",
      "type": "function"
    },
    {
      "constant": true,
      "inputs": [
        {
          "internalType": "address",
          "name": "",
          "type": "address"
        }
      ],
      "name": "voters",
      "outputs": [
        {
          "internalType": "uint256",
          "name": "weight",
          "type": "uint256"
        },
        {
          "internalType": "bool",
          "name": "voted",
          "type": "bool"
        },
        {
          "internalType": "address",
          "name": "delegate",
          "type": "address"
        },
        {
          "internalType": "uint256",
          "name": "vote",
          "type": "uint256"
        }
      ],
      "payable": false,
      "stateMutability": "view",
      "type": "function"
    },
    {
      "constant": false,
      "inputs": [
        {
          "internalType": "uint256",
          "name": "proposal",
          "type": "uint256"
        }
      ],
      "name": "vote",
      "outputs": [],
      "payable": false,
      "stateMutability": "nonpayable",
      "type": "function"
    },
    {
      "constant": false,
      "inputs": [
        {
          "internalType": "address",
          "name": "voter",
          "type": "address"
        }
      ],
      "name": "giveRightToVote",
      "outputs": [],
      "payable": false,
      "stateMutability": "nonpayable",
      "type": "function"
    },
    {
      "constant": true,
      "inputs": [],
      "name": "winnerName",
      "outputs": [
        {
          "internalType": "string",
          "name": "winnerName_",
          "type": "string"
        },
        {
          "internalType": "uint256",
          "name": "winningVoteCount_",
          "type": "uint256"
        }
      ],
      "payable": false,
      "stateMutability": "view",
      "type": "function"
    },
    {
      "constant": true,
      "inputs": [],
      "name": "winningProposal",
      "outputs": [
        {
          "internalType": "uint256",
          "name": "winningProposal_",
          "type": "uint256"
        }
      ],
      "payable": false,
      "stateMutability": "view",
      "type": "function"
    },
    {
      "constant": false,
      "inputs": [
        {
          "internalType": "address",
          "name": "to",
          "type": "address"
        }
      ],
      "name": "delegate",
      "outputs": [],
      "payable": false,
      "stateMutability": "nonpayable",
      "type": "function"
    }
  ],
  "bytecode": "0x60806040523480156200001157600080fd5b50604051620015ad380380620015ad83398181016040526200003791908101906200031c565b336000806101000a81548173ffffffffffffffffffffffffffffffffffffffff021916908373ffffffffffffffffffffffffffffffffffffffff16021790555060018060008060009054906101000a900473ffffffffffffffffffffffffffffffffffffffff1673ffffffffffffffffffffffffffffffffffffffff1673ffffffffffffffffffffffffffffffffffffffff1681526020019081526020016000206000018190555060008090505b81518110156200018c57600260405180604001604052808484815181106200010957fe5b6020026020010151815260200160008152509080600181540180825580915050906001820390600052602060002090600202016000909192909190915060008201518160000190805190602001906200016492919062000194565b50602082015181600101555050506001600354016003819055508080600101915050620000e5565b50506200041b565b828054600181600116156101000203166002900490600052602060002090601f016020900481019282601f10620001d757805160ff191683800117855562000208565b8280016001018555821562000208579182015b8281111562000207578251825591602001919060010190620001ea565b5b5090506200021791906200021b565b5090565b6200024091905b808211156200023c57600081600090555060010162000222565b5090565b90565b600082601f8301126200025557600080fd5b81516200026c62000266826200038f565b62000361565b9150818183526020840193506020810190508360005b83811015620002b657815186016200029b8882620002c0565b84526020840193506020830192505060018101905062000282565b5050505092915050565b600082601f830112620002d257600080fd5b8151620002e9620002e382620003b8565b62000361565b915080825260208301602083018583830111156200030657600080fd5b62000313838284620003e5565b50505092915050565b6000602082840312156200032f57600080fd5b600082015167ffffffffffffffff8111156200034a57600080fd5b620003588482850162000243565b91505092915050565b6000604051905081810181811067ffffffffffffffff821117156200038557600080fd5b8060405250919050565b600067ffffffffffffffff821115620003a757600080fd5b602082029050602081019050919050565b600067ffffffffffffffff821115620003d057600080fd5b601f19601f8301169050602081019050919050565b60005b8381101562000405578082015181840152602081019050620003e8565b8381111562000415576000848401525b50505050565b611182806200042b6000396000f3fe608060405234801561001057600080fd5b50600436106100935760003560e01c80639e7b8d61116100665780639e7b8d611461011f578063a3ec138d1461013b578063e2ba53f01461016e578063e76f4b791461018d578063f851a440146101ab57610093565b80630121b93f14610098578063013cf08b146100b45780635c19a95c146100e5578063609ff1bd14610101575b600080fd5b6100b260048036036100ad9190810190610ba9565b6101c9565b005b6100ce60048036036100c99190810190610ba9565b61032d565b6040516100dc929190610eee565b60405180910390f35b6100ff60048036036100fa9190810190610b80565b6103f6565b005b610109610779565b6040516101169190610ffe565b60405180910390f35b61013960048036036101349190810190610b80565b6107f0565b005b61015560048036036101509190810190610b80565b6109de565b6040516101659493929190611019565b60405180910390f35b610176610a3b565b604051610184929190610ebe565b60405180910390f35b610195610b2b565b6040516101a29190610ffe565b60405180910390f35b6101b3610b31565b6040516101c09190610ea3565b60405180910390f35b6000600160003373ffffffffffffffffffffffffffffffffffffffff1673ffffffffffffffffffffffffffffffffffffffff16815260200190815260200160002090508060010160009054906101000a900460ff161561025e576040517f08c379a000000000000000000000000000000000000000000000000000000000815260040161025590610f5e565b60405180910390fd5b6000816000015414156102a6576040517f08c379a000000000000000000000000000000000000000000000000000000000815260040161029d90610f3e565b60405180910390fd5b60018160010160006101000a81548160ff0219169083151502179055508181600201819055508060000154600283815481106102de57fe5b906000526020600020906002020160010160008282540192505081905550817ffff3c900d938d21d0990d786e819f29b8d05c1ef587b462b939609625b684b1660405160405180910390a25050565b6002818154811061033a57fe5b9060005260206000209060020201600091509050806000018054600181600116156101000203166002900480601f0160208091040260200160405190810160405280929190818152602001828054600181600116156101000203166002900480156103e65780601f106103bb576101008083540402835291602001916103e6565b820191906000526020600020905b8154815290600101906020018083116103c957829003601f168201915b5050505050908060010154905082565b6000600160003373ffffffffffffffffffffffffffffffffffffffff1673ffffffffffffffffffffffffffffffffffffffff16815260200190815260200160002090508060010160009054906101000a900460ff161561048b576040517f08c379a000000000000000000000000000000000000000000000000000000000815260040161048290610f5e565b60405180910390fd5b3373ffffffffffffffffffffffffffffffffffffffff168273ffffffffffffffffffffffffffffffffffffffff1614156104fa576040517f08c379a00000000000000000000000000000000000000000000000000000000081526004016104f190610fde565b60405180910390fd5b5b600073ffffffffffffffffffffffffffffffffffffffff16600160008473ffffffffffffffffffffffffffffffffffffffff1673ffffffffffffffffffffffffffffffffffffffff16815260200190815260200160002060010160019054906101000a900473ffffffffffffffffffffffffffffffffffffffff1673ffffffffffffffffffffffffffffffffffffffff161461066a57600160008373ffffffffffffffffffffffffffffffffffffffff1673ffffffffffffffffffffffffffffffffffffffff16815260200190815260200160002060010160019054906101000a900473ffffffffffffffffffffffffffffffffffffffff1691503373ffffffffffffffffffffffffffffffffffffffff168273ffffffffffffffffffffffffffffffffffffffff161415610665576040517f08c379a000000000000000000000000000000000000000000000000000000000815260040161065c90610f9e565b60405180910390fd5b6104fb565b60018160010160006101000a81548160ff021916908315150217905550818160010160016101000a81548173ffffffffffffffffffffffffffffffffffffffff021916908373ffffffffffffffffffffffffffffffffffffffff1602179055506000600160008473ffffffffffffffffffffffffffffffffffffffff1673ffffffffffffffffffffffffffffffffffffffff16815260200190815260200160002090508060010160009054906101000a900460ff161561075d578160000154600282600201548154811061073a57fe5b906000526020600020906002020160010160008282540192505081905550610774565b816000015481600001600082825401925050819055505b505050565b6000806000905060008090505b6002805490508110156107eb5781600282815481106107a157fe5b90600052602060002090600202016001015411156107de57600281815481106107c657fe5b90600052602060002090600202016001015491508092505b8080600101915050610786565b505090565b6000809054906101000a900473ffffffffffffffffffffffffffffffffffffffff1673ffffffffffffffffffffffffffffffffffffffff163373ffffffffffffffffffffffffffffffffffffffff161461087f576040517f08c379a000000000000000000000000000000000000000000000000000000000815260040161087690610f7e565b60405180910390fd5b600160008273ffffffffffffffffffffffffffffffffffffffff1673ffffffffffffffffffffffffffffffffffffffff16815260200190815260200160002060010160009054906101000a900460ff161561090f576040517f08c379a000000000000000000000000000000000000000000000000000000000815260040161090690610f1e565b60405180910390fd5b6000600160008373ffffffffffffffffffffffffffffffffffffffff1673ffffffffffffffffffffffffffffffffffffffff1681526020019081526020016000206000015414610994576040517f08c379a000000000000000000000000000000000000000000000000000000000815260040161098b90610fbe565b60405180910390fd5b60018060008373ffffffffffffffffffffffffffffffffffffffff1673ffffffffffffffffffffffffffffffffffffffff1681526020019081526020016000206000018190555050565b60016020528060005260406000206000915090508060000154908060010160009054906101000a900460ff16908060010160019054906101000a900473ffffffffffffffffffffffffffffffffffffffff16908060020154905084565b606060006002610a49610779565b81548110610a5357fe5b90600052602060002090600202016000018054600181600116156101000203166002900480601f016020809104026020016040519081016040528092919081815260200182805460018160011615610100020316600290048015610af85780601f10610acd57610100808354040283529160200191610af8565b820191906000526020600020905b815481529060010190602001808311610adb57829003601f168201915b505050505091506002610b09610779565b81548110610b1357fe5b90600052602060002090600202016001015490509091565b60035481565b6000809054906101000a900473ffffffffffffffffffffffffffffffffffffffff1681565b600081359050610b6581611111565b92915050565b600081359050610b7a81611128565b92915050565b600060208284031215610b9257600080fd5b6000610ba084828501610b56565b91505092915050565b600060208284031215610bbb57600080fd5b6000610bc984828501610b6b565b91505092915050565b610bdb81611085565b82525050565b610bea81611097565b82525050565b6000610bfb82611069565b610c058185611074565b9350610c158185602086016110cd565b610c1e81611100565b840191505092915050565b6000610c348261105e565b610c3e8185611074565b9350610c4e8185602086016110cd565b610c5781611100565b840191505092915050565b6000610c6f601583611074565b91507f4c6520566f74657220612064656a6120766f74652e00000000000000000000006000830152602082019050919050565b6000610caf602183611074565b91507f566f7573206e276176657a20706173206c652064726f697420646520766f746560008301527f2e000000000000000000000000000000000000000000000000000000000000006020830152604082019050919050565b6000610d15601483611074565b91507f566f7573206176657a2064656a6120766f74652e0000000000000000000000006000830152602082019050919050565b6000610d55602a83611074565b91507f5365756c206c2761646d696e207065757420646f6e6e6572206c652064726f6960008301527f7420646520766f74652e000000000000000000000000000000000000000000006020830152604082019050919050565b6000610dbb601683611074565b91507f44656c65676174696f6e2063697263756c616972652e000000000000000000006000830152602082019050919050565b6000610dfb602083611074565b91507f4c6520566f74657220612064656a61206c652064726f697420646520766f74656000830152602082019050919050565b6000610e3b602583611074565b91507f4c276175746f2064656c65676174696f6e206e2765737420706173206175746f60008301527f726973652e0000000000000000000000000000000000000000000000000000006020830152604082019050919050565b610e9d816110c3565b82525050565b6000602082019050610eb86000830184610bd2565b92915050565b60006040820190508181036000830152610ed88185610bf0565b9050610ee76020830184610e94565b9392505050565b60006040820190508181036000830152610f088185610c29565b9050610f176020830184610e94565b9392505050565b60006020820190508181036000830152610f3781610c62565b9050919050565b60006020820190508181036000830152610f5781610ca2565b9050919050565b60006020820190508181036000830152610f7781610d08565b9050919050565b60006020820190508181036000830152610f9781610d48565b9050919050565b60006020820190508181036000830152610fb781610dae565b9050919050565b60006020820190508181036000830152610fd781610dee565b9050919050565b60006020820190508181036000830152610ff781610e2e565b9050919050565b60006020820190506110136000830184610e94565b92915050565b600060808201905061102e6000830187610e94565b61103b6020830186610be1565b6110486040830185610bd2565b6110556060830184610e94565b95945050505050565b600081519050919050565b600081519050919050565b600082825260208201905092915050565b6000611090826110a3565b9050919050565b60008115159050919050565b600073ffffffffffffffffffffffffffffffffffffffff82169050919050565b6000819050919050565b60005b838110156110eb5780820151818401526020810190506110d0565b838111156110fa576000848401525b50505050565b6000601f19601f8301169050919050565b61111a81611085565b811461112557600080fd5b50565b611131816110c3565b811461113c57600080fd5b5056fea365627a7a723158206edd266da5715711f34640ab8ba712040663b280f73ac0528c6a967dc5eab0526c6578706572696d656e74616cf564736f6c63430005100040",
  "source": "pragma experimental ABIEncoderV2;\npragma solidity >=0.5.16;\n\n/**\n* Implémentation d'un système de vote avec délégation\n* @title E-Voting Network\n* @author Bayle Nathanaël & Guy Adrien\n*/\ncontract Election {\n    \n    /**\n     * Structure Proposal\n     */\n    struct Proposal {\n        // Nom du l'option\n        string name;   \n        // Nombre total de votes\n        uint voteCount;\n    }\n\n    /**\n     * Structure Voters\n     */\n    struct Voter {\n        // Le poid du vote en fonction de la délégation\n        uint weight; \n        // Si vrai, la personne à déjà voté\n        bool voted; \n        // L'adresse pour la délégation\n        address delegate;\n        // L'index du choix du vote\n        uint vote;  \n    }\n\n    // Adresse de l'admin\n    address public admin;\n\n    // Déclaration d'un mapping\n    // Pour chaque adresse on associe un participant au vote \n    mapping(address => Voter) public voters;\n\n    // Tableau dynamique représentant la liste des options pour le vote\n    Proposal[] public proposals;\n\n    uint public proposals_count;\n\n    // voted event\n    event votedEvent (\n        uint indexed _proposal\n    );\n\n    /**\n     * Constructeur d'un nouveau vote à choisir parmis les 'proposalNames'\n     */\n    constructor ( string[] memory proposalNames ) public {\n        admin = msg.sender;\n        voters[admin].weight = 1;\n\n        // Pour chaque élément dnas 'proposalNames'\n        // Création d'un nouveau objet 'Proposal'\n        for ( uint i = 0 ; i < proposalNames.length ; i++ ) {\n            // Création d'un 'Propoosal' et l'ajoute a la fin de la liste 'proposals'\n            proposals.push( Proposal({ name: proposalNames[i], voteCount: 0 } ) ) ;\n            proposals_count = proposals_count + 1;\n        }\n    }\n\n    /**\n     * Donne le vote (et celui de la délégation) au proposal passé en paramètre  \n     */\n    function vote ( uint proposal ) public {\n        Voter storage sender = voters[msg.sender];\n        require( !sender.voted, \"Vous avez deja vote.\");\n        require( sender.weight != 0, \"Vous n'avez pas le droit de vote.\");\n        sender.voted = true;\n        sender.vote = proposal;\n\n        proposals[proposal].voteCount += sender.weight;\n        emit votedEvent ( proposal );\n    }\n\n    /**\n     * Donne le droit au un voter de voter pour cette élection\n     */\n    function giveRightToVote ( address voter ) public {\n        // Vérification de l'admin\n        require( msg.sender == admin, \"Seul l'admin peut donner le droit de vote.\" );\n        // Vérification pour le Voter\n        require( !voters[voter].voted, \"Le Voter a deja vote.\" );\n        require( voters[voter].weight == 0, \"Le Voter a deja le droit de vote\" );\n        // Affectation du poid au voter\n        voters[voter].weight = 1;\n    }\n\n    /**\n     * Appelle la fonction winningProposal() pour obtenir \n     * l'index du vainqueur, et retourne son nom.\n     */\n    function winnerName() public view returns (string memory winnerName_, uint winningVoteCount_ ) {\n        winnerName_ = proposals[ winningProposal() ].name;\n        winningVoteCount_ = proposals[ winningProposal() ].voteCount;\n    }\n\n    /**\n     * Calcule le vainqueur de l'éléction. \n     */\n    function winningProposal() public view returns ( uint winningProposal_ ) {\n        uint winningVoteCount = 0;\n        for ( uint p = 0 ; p < proposals.length ; p++ ) {\n            if ( proposals[p].voteCount > winningVoteCount ) {\n                winningVoteCount = proposals[p].voteCount;\n                winningProposal_ = p;\n            }\n        }\n    }\n\n    /**\n     * Délégation pour le vote\n     */\n    function delegate ( address to ) public {\n        Voter storage sender = voters[msg.sender];\n        require( !sender.voted, \"Vous avez deja vote.\" );\n\n        require( to != msg.sender, \"L'auto delegation n'est pas autorise.\");\n\n        while ( voters[to].delegate != address( 0 ) ) {\n            to = voters[to].delegate;\n\n            require ( to != msg.sender, \"Delegation circulaire.\");\n        }\n\n        sender.voted = true;\n        sender.delegate = to;\n\n        Voter storage delegate_ = voters[to];\n\n        if ( delegate_.voted ) {\n            proposals[delegate_.vote].voteCount += sender.weight;\n        } else {\n            delegate_.weight += sender.weight;\n        }\n    }\n}",
  "sourcePath": "/home/nathanael/blockchain-besu/GANACHE/contracts/Election.sol",
  "compiler": {
    "name": "solc",
    "version": "0.5.16+commit.9c3226ce.Emscripten.clang"
  },
  "schemaVersion": "3.4.3",
  "updatedAt": "2021-11-18T16:16:25.052Z",
  "networkType": "ethereum",
  "devdoc": {
    "author": "Bayle Nathanaël & Guy Adrien",
    "methods": {},
    "title": "E-Voting Network"
  },
  "userdoc": {
    "methods": {
      "constructor": "Constructeur d'un nouveau vote à choisir parmis les 'proposalNames'",
      "delegate(address)": {
        "notice": "Délégation pour le vote"
      },
      "giveRightToVote(address)": {
        "notice": "Donne le droit au un voter de voter pour cette élection"
      },
      "vote(uint256)": {
        "notice": "Donne le vote (et celui de la délégation) au proposal passé en paramètre  "
      },
      "winnerName()": {
        "notice": "Appelle la fonction winningProposal() pour obtenir  l'index du vainqueur, et retourne son nom."
      },
      "winningProposal()": {
        "notice": "Calcule le vainqueur de l'éléction. "
      }
    },
    "notice": "Implémentation d'un système de vote avec délégation"
  }
}